:020000040800F2
:1000000080050020D5000008FB000008FD00000866
:1000100000000000000000000000000000000000E0
:10002000000000000000000000000000FF000008C9
:1000300000000000000000000101000803010008AA
:100040000501000805010008050100080501000878
:100050000501000805010008050100080501000868
:1000600005010008531300080501000805010008F8
:10007000050100080501000805010008530F0008EC
:10008000050100080501000800000000570E0008E7
:10009000D70E000805010008050100080501000849
:1000A000050100080501000805010008B505000864
:1000B0006F070008000000000501000800000000B4
:1000C0000348854605F092FC004800475B4F000856
:1000D000800500200C4880F308880C480168090E50
:1000E0000B4A914205D10B480B4901600B480C4962
:1000F00001600C4880470C480047FEE7FEE7FEE73A
:10010000FEE7FEE7FEE70000800500200400000097
:100110001F00000018100240010000000000014014
:1001200000000000FB010008C10000080CB5002021
:100130000190009073480068012109040843714947
:10014000086000BF6F480068012149040840009022
:100150000198401C01900098002804D10521090352
:1001600001988842EED1674800680121490408409F
:10017000002802D00120009001E0002000900098AB
:10018000012839D11120604908605E4840685D4906
:100190004860084640684860084640687F21C903B7
:1001A00088435849486008464068112109040843BB
:1001B000544948600846006801210906084351492E
:1001C000086000BF4F480068012149060840002828
:1001D000F8D04C484068800880004A49486008468A
:1001E0004068022108434749486000BF45484068CD
:1001F0000C2108400828F9D10CBD10B54148006811
:10020000012108433F490860084640683F490840CB
:100210003C494860084600683D4908403949086043
:100220000846006801218904884336490860084669
:1002300040683F2109048843324948600846C06A43
:1002400000090001C8620846006BFF215431884351
:100250002C4908630846406B400840004863002072
:100260008860FFF763FF10BDF8B500250024002665
:100270000027244840680C2108400546002D04D082
:10028000042D06D0082D2AD107E022482249086013
:1002900029E020482049086025E01A4840680F21DD
:1002A000890408400446174840680321C9030840F0
:1002B0000646A00C841C002E04D118486043164941
:1002C00008600BE00F48C06A0007000F471C394662
:1002D000104804F07BFF60430F49086003E00D48BD
:1002E0000D49086000BF00BF06484068F021084083
:1002F00000090B490D5C08480068E84006490860A1
:10030000F8BD000000100240002002400CB8FFF8C9
:10031000FFFFF6FE00127A000000002000093D00F9
:100320000400002010B50420C04304F03AFD2A491F
:100330002A48006804F04AFF2949087008460078F6
:100340007D21C90048432749088010BD0146244A41
:1003500012784A43244B5A6100229A611A46126964
:1003600001231A43204B1A6100BF1F4A1069C207BC
:10037000D20F002A04D0012212040240002AF4D035
:10038000194A126952085200174B1A6100229A61E9
:1003900070470146134A12884A43134B5A610022A0
:1003A0009A611A46126901231A430F4B1A6100BF62
:1003B0000D4A1069C207D20F002A04D0012212048C
:1003C0000240002AF4D0084A126952085200064B33
:1003D0001A6100229A61704700127A000000002022
:1003E000140000201600002000E000E0F8B50446EC
:1003F0000D4616461F466846047045708670C770E5
:100400006946002002F089FEF8BDF8B504460D46A5
:1004100016461F466846867045700770C470694668
:10042000002002F017FFF8BD0EB50121080702F009
:10043000E3FC012002F00DF9002003F082FA1A49D2
:1004400088422AD0012002F064FA00BF212002F085
:10045000D6F90028FAD0FF20013002F087FC0120F5
:1004600002F08AFC02F030FD7F200190FF20029014
:1004700000200090684602F0BCFD00231A46194691
:100480000C20FFF7B3FF042309220B211020FFF7F4
:10049000BCFF0549002003F047FA012002F06CFC84
:1004A00002F012FD0EBD0000F032000008B51B2165
:1004B0006846017001214170817004F02FFC08BD75
:1004C00000B589B00121480402F07AFC01218803BB
:1004D00002F084FC01220921C80602F05AF8012228
:1004E0000A210920C00602F054F8012040020790BA
:1004F000022108A8017000218170032141700021B0
:10050000C17007A90920C00601F0BAFF01208002CE
:100510000790022108A801700021C17007A90920D5
:10052000C00601F0ADFF4B20C001019000200290F9
:10053000039004900C2005900020069001A95548D6
:1005400004F049F9FFF7B2FF01225349514804F082
:1005500074FB01214F4804F0D3F940214D4804F0C9
:10056000AAFB09B000BD4D49097800291EDD4C49A0
:1005700009784A4A1278914207D048490978484A8E
:1005800011700021474A117013E046490978142977
:100590000FDA444909780918424A1170114609785E
:1005A000142906DB0121404A117002E000213C4A77
:1005B0001170704710B53849364804F07EFB0028AA
:1005C00020D03549334804F09FFB324804F04DFAFF
:1005D000C4B2552C08D10020304908700846007874
:1005E000400032490C5209E02C480078401C2B494D
:1005F00008700846007840002C490C5227480078C3
:100600002649087010BD00BF2249C96980221140E7
:100610000029F9D01F492031088170470CE000BF44
:100620001C4AD26980231A40002AF9D00278194B5B
:1006300020331A81401C491E0029F0D17047F8B5BB
:1006400006460C4612211A4800F052F907463812A5
:10065000A084E78400250DE06800215A0D4804F0CD
:1006600000FA00BF40210B4804F01BFB0028F9D022
:10067000681CC5B2B542EFDBF8BD10B502460020DC
:1006800004E0002344001353431CD8B28842F8DB33
:1006900010BD0000003801400501050021000020C8
:1006A0007800002079000020200000204E0000206B
:1006B0002400002008B51C21684601700221417009
:1006C0000121817004F02AFB08BD00B589B0012129
:1006D000480402F075FB0121480402F08DFB012261
:1006E00002210920C00601F054FF01220321092044
:1006F000C00601F04EFF04200790022108A80170F7
:1007000000218170032141700121C17007A90920D6
:10071000C00601F0B5FE08200790022108A801706C
:100720000021C17007A90920C00601F0A9FE4B20D5
:10073000C001019000200290039004900C200590CD
:100740000020069001A9324804F045F8FFF7B2FFF7
:10075000012230492E4804F070FA01212C4804F09F
:10076000CFF840212A4804F0A6FA09B000BD10B520
:100770002849274804F0A1FA00282CD0254924480C
:1007800004F0C2FA224804F070F9C4B2322C05D148
:10079000002021490870214804801CE03D2C0CD128
:1007A0001D480078002808D101201B4908701B480B
:1007B000448001201A4908700DE01948007801288A
:1007C00009D115480078401C134908700846007884
:1007D000400012490C5210BD00BF0D49C96980226A
:1007E00011400029F9D00A492031088170470CE0F6
:1007F00000BF074AD26980231A40002AF9D0027844
:10080000034B20331A81401C491E0029F0D1704748
:100810000044004005010500BB0000207A000020D4
:10082000BD00002070B504460D46E1B20C4804F04E
:1008300018F900BF40210A4804F033FA0028F9D023
:10084000204670BD10B5044600BF2021044804F0C6
:1008500028FA0028F9D0024804F007F910BD00007A
:10086000003801401CB501212720400402F0A8FAFD
:100870001820009001216846017100218171032137
:1008800041710021C1716946184801F0F9FD01204C
:10089000C00300900121684601710021817103218C
:1008A00041710021C17169460920C00601F0E8FDCF
:1008B0000320009003216846017141710021C1713C
:1008C00069460920C00601F0DBFD0821074801F058
:1008D00054FE1021054801F050FE0121C9030920F2
:1008E000C00601F04AFE1CBD70470000000400482D
:1008F00070B502460B46FF25FF2409E01078921CD4
:100900006040C1B20648405C684004460548455C0A
:1009100018465E1EB3B20028F0D12802204370BDF5
:100920001A6400081A6500081CB50121880402F049
:1009300047FAC020009001216846017100218171B1
:10094000032141710121C1716946F94801F098FD07
:100950004021F74801F011FE8021F54801F00DFE1D
:100960001CBD10B5F2480068032189038843F04993
:10097000086008460068012189030843EC490860C3
:100980004021EB4801F0F9FD8021E94801F0F5FD37
:100990000420FFF7DBFC8021E54801F0F0FD042096
:1009A000FFF7D4FC4021E24801F0E9FD10BD10B58D
:1009B000DF480068032189038843DD490860084651
:1009C0000068012189030843D94908604021D848BB
:1009D00001F0D5FD8021D64801F0D1FD0420FFF7BC
:1009E000B5FC4021D24801F0C8FD8021D04801F07B
:1009F000C4FD0420FFF7AAFC10BD10B50024CC48AC
:100A00000068032189038843C949086008460068D3
:100A100008608021C64801F0B0FD0120FFF796FC78
:100A20004021C34801F0A9FD0120FFF78FFC07E03A
:100A3000601CC4B2FA2C03DDFFF7B9FF012010BD22
:100A40008021BB4801F07FFD0028F1D14021B8484A
:100A500001F095FD0020F2E710B54021B44801F007
:100A60008EFDB3480068032189038843B0490860BC
:100A700008460068012189030843AD4908608021C8
:100A8000AB4801F07CFD0220FFF760FC4021A84844
:100A900001F073FD0220FFF759FC4021A44801F04A
:100AA0006EFD10BD10B54021A14801F068FDA048C1
:100AB00000680321890388439D490860084600684F
:100AC0000121890308439A4908608021984801F070
:100AD00054FD0220FFF73AFC4021954801F04DFDFE
:100AE0000220FFF733FC4021914801F048FD10BD82
:100AF00070B504468E4800680321890388438C49F9
:100B00000860084600680121890308438849086095
:100B10004021874801F033FD00252BE08020204054
:100B2000C611002E04D08021814801F026FD03E08B
:100B300080217F4801F023FD6006040E0220FFF7AC
:100B400005FC0A20FFF702FC4021794801F015FD61
:100B50000220FFF7FBFB0A20FFF7F8FB4021744857
:100B600001F00DFD0220FFF7F1FB0A20FFF7EEFB7D
:100B7000681CC5B2082DD1DB70BD70B505460024D8
:100B80006B48006803218903884369490860084667
:100B90000068086000261CE04021654801F0EFFC79
:100BA0000220FFF7D3FB0A20FFF7D0FB402160486B
:100BB00001F0E3FC6006040E80215D4801F0C3FCF7
:100BC000002801D0601CC4B20120FFF7BFFB701CDD
:100BD000C6B2082EE0DB002D02D1FFF763FF01E073
:100BE000FFF73AFF204670BD70B504460026FFF7B8
:100BF000B8FEA220FFF77CFFFFF7FFFE2012FFF7F1
:100C000077FFFFF7FAFE2546E117090E4919091289
:100C10000902611AC8B2FFF76BFFFFF7EEFEFFF79C
:100C2000A0FEA320FFF764FFFFF7E7FE0020FFF719
:100C3000A4FF0646FFF7BBFE304670BDF8B506467A
:100C40000C460027FFF78DFE3046FFF751FFFFF7F8
:100C5000D4FE2012FFF74CFFFFF7CFFE2546E11729
:100C6000090E491909120902611AC8B2FFF740FFBB
:100C7000FFF7C3FEFFF775FE711CC8B2FFF738FF20
:100C8000FFF7BBFE0020FFF778FF0746FFF78FFE58
:100C90003846F8BD70B504460E46FFF762FEA22046
:100CA000FFF726FFFFF7A9FE2012FFF721FFFFF74E
:100CB000A4FE2546E117090E491909120902611A15
:100CC000C8B2FFF715FFFFF798FE3046FFF710FF99
:100CD000FFF793FEFFF76BFE0A20FFF75AFB70BD8C
:100CE000F8B507460C461646FFF73BFE3846FFF7B9
:100CF000FFFEFFF782FE2012FFF7FAFEFFF77DFEF0
:100D00002546E117090E491909120902611AC8B2EC
:100D1000FFF7EEFEFFF771FE3046FFF7E9FEFFF743
:100D20006CFEFFF744FE0A20FFF733FBF8BD00001E
:100D300000040048F8B505460E461746002409E0B1
:100D4000E2003346D340D9B22A1990B2FFF7A2FF8E
:100D5000601CC4B2BC42F3DBF8BDF8B507460C46D4
:100D60000026002509E036023919491B491E88B2C0
:100D7000FFF73AFF8619681CC5B2A542F3DB30467F
:100D8000F8BD10B5FF20FFF72FFF0446552C01D109
:100D9000002010BD5521FF20FFF77CFFFF20FFF74B
:100DA00023FF0446552C01D10020F2E70120F0E793
:100DB00070B506460C46154608E03046721C96B2E1
:100DC000FFF712FF2070641C681E85B2002DF4D15D
:100DD00070BD70B505460C46164606E021782846DB
:100DE000FFF758FF681C85B2641C3046711E8EB236
:100DF0000028F3D170BD000008B5132168460170CA
:100E0000002141700121817003F088FF08BD0EB5FB
:100E10000121080201F0F0FF154802F075FE1548A7
:100E20000190002168460180018141806946104897
:100E300002F0DCFE012230210D4802F00DFF0122FC
:100E400011460B4803F056FB0121094802F053FFFD
:100E5000FFF7D2FF0EBD10B50121054803F063FB7B
:100E6000002803D00121024803F070FB10BD0000F0
:100E700000200040E703000008B514216846017017
:100E8000002141700121817003F048FF08BD0EB5BB
:100E90000121080401F0A2FF154802F035FE1548B3
:100EA0000190002168460180018141806946104817
:100EB00002F09CFE012230210D4802F0CDFE0122FD
:100EC00011460B4803F016FB0121094802F013FFFD
:100ED000FFF7D2FF0EBD10B50121054803F023FB3B
:100EE000002803D00121024803F030FB10BD0000B0
:100EF00000400140E703000008B50F21684601707B
:100F0000002141700121817003F008FF08BD3EB54A
:100F100004460D460121084601F06EFF01208007BE
:100F200002F0F2FD019468460580002101814180B4
:100F300069460120800702F059FE01221146900700
:100F400003F0D8FA0121880702F0D5FEFFF7D4FF9D
:100F50003EBD10B50121880703F0E5FA002808D04E
:100F60000121880703F0F2FA02480068401C014999
:100F7000086010BD1C01002070B506460C46002517
:100F800011E0605D00280DD0615D304603F069FD21
:100F900000BF8021304603F084FE0028F9D0681C91
:100FA000C5B200E070BDECE770B506460C46002502
:100FB00010E0002C0BD02146304603F052FD00BF5C
:100FC0008021304603F06DFE0028F9D000E070BDAE
:100FD000681CC5B2032DECDB00BFF8E770B5044612
:100FE0000D4629462046FFF7C7FFFF212046FFF7A1
:100FF000DBFF70BD64480088552872D16248408884
:10100000AA286ED160488088022822D15E480089D3
:10101000002802D15D49087063E05B48008901281F
:1010200002D15A4908705CE057480089022802D171
:101030005649087055E054480089032802D15349A5
:1010400008704EE05048008904284AD14F49087082
:1010500047E04D48808803283ED14B48807A30389D
:101060000A2148434849097B3039401848490870EB
:101070004548007C30380A2148434349897C30394F
:101080004018434948704048807D30380A21484321
:101090003D49097E303940183D4988703A48007F03
:1010A0003038C8703848408C30380A2148433649B7
:1010B000898C30394018364908713348008D3038F2
:1010C0000A2148433049498D303940183049487128
:1010D00001203049087004E02B488088042800D0A3
:1010E00000BF704710B586B028480078030004F0B0
:1010F0001CFD050442434445460000F0BBFB00F0E4
:1011000053F900F0DAFD23480078012810D10020BF
:10111000204908701E4A5179107900231A46FFF7BA
:1011200065F91B4CE378A27861782078FFF76DF9B8
:101130001949002002F003F91849002002F05BF879
:101140001648807815494978144A1278124B1B7852
:1011500001930292039104900F48807800900E480A
:101160004378C2780EA11A4804F0B4FC1849194813
:10117000FFF734FF04E003E002E001E000E000BF1D
:1011800000BF06B010BD00004E000020C7000020C8
:1011900018000020BE000020C3000020BF00002077
:1011A00074332E7478743D223230253032642D250C
:1011B0003032642D253032642825642920253032D0
:1011C000643A253032643A2530326422000000004F
:1011D000380100200038014000B58DB001210846DB
:1011E00001F0EEFD092168460171012181710321A1
:1011F000417101A803F092FD804800F099FF04209E
:101200000590002004907E48039001208002099000
:10121000802007907B4802900015089000200690DF
:1012200020200A9000020B9000200C9002A9734825
:1012300001F029F801220221704801F078F802201B
:1012400001F0BAF801216D4801F047F80DB000BD7A
:1012500000B587B00121480201F0C0FD694840385F
:1012600000F0F0FD01A800F00FFE00200190012029
:1012700069460872002003900590069001A9614814
:10128000403800F0EDFD01215E48403800F0C4FE1A
:10129000022203215B48403800F096FE594840384E
:1012A00000F0C8FE01215748403800F0F5FD00BFAE
:1012B00055495448403800F007FF0028F8D0012174
:1012C0005048403800F0E2FE02214E48403800F01D
:1012D000E9FE4C48403800F0D0FEFFF77DFF07B034
:1012E00000BDFEB505460F46002001900090002489
:1012F00018E0601CC6B211E07000285A6100695AFB
:10130000884209DA7000285A02906000285A710059
:101310006852610002986852701CC6B2BE42EBDB94
:10132000601CC4B2781EA042E3DC022407E0600027
:10133000295A0198081880B20190601CC4B2072C89
:10134000F5DD0621019803F057FF80B20090009868
:10135000FEBD10B5022001F018F8002820D02B485F
:101360000078002812D126480088294909784900C8
:10137000284A505222484088254909784900264A7F
:10138000505223480078401C2149087020480078BA
:101390000A2805DB00201E49087001201B4908703F
:1013A000022001F009F810BD10B51C4800881C4946
:1013B0000988884205D11B4800881B490988884252
:1013C0001BD0174800881549088017480088154920
:1013D00008801248028815A1184804F07BFB1749C1
:1013E0001748FFF7FBFD0F48028816A1134804F0C9
:1013F00071FB12491248FFF7F1FD10BD08000240D1
:10140000C80000204024014001000001D400002059
:10141000D5000020560100206A010020D6000020DF
:10142000D0000020D8000020D200002074302E749C
:1014300078743D2225356422000000003801002028
:101440000038014074312E7478743D2225356422B1
:1014500000000000FFB58FB00C4615461E46F94847
:101460000E90F9480D90F9480C90F9480B90F94806
:101470000A90F5480990F84808900F9804F027F86A
:10148000F149049003F025FFEE49059003F0C8FEF2
:101490000746204604F01BF80390204604F017F896
:1014A000EC49019003F015FF0290039903F011FF3E
:1014B0000590204604F00BF8E549029003F009FF7F
:1014C000E249039003F0ACFE0490059903F0A8FEF6
:1014D0000790204603F0FBFFDF49019003F0F9FE7F
:1014E000D949029003F09CFEDC490490384603F091
:1014F000E8FE0390049903F0ECFE0590079903F0D1
:101500008FFE0690D649069804F048F801D2D448D8
:101510000690069804F00FF8D24AD34B0591049038
:1015200004F01EF801D2C84806902F60069830607B
:1015300013B0F0BD10B50A20FEF708FF10BD1CB5B2
:101540008020009003216846417101210171002132
:1015500081710121C17169460920C00600F090FF28
:101560001CBD1CB5802000900321684641710021FC
:1015700001710121C17169460920C00600F080FF98
:101580001CBD70B505460026FFF7EBFF80241CE06C
:10159000FFF7D0FF40210920C00600F0EEFFFFF763
:1015A000C9FF80210920C00600F0CDFF002802D02D
:1015B00030462043064640210920C00600F0DFFFE8
:1015C0002046E10F0918C9050C0E002CE0DCFFF7DE
:1015D000B6FF002D05D080210920C00600F0CFFF06
:1015E00004E080210920C00600F0C7FFFFF7A2FF3A
:1015F00040210920C00600F0C0FFFFF79BFF4021FB
:101600000920C00600F0BBFFFFF794FF304670BD15
:1016100070B505460026FFF792FF802423E02046A0
:101620002840002805D080210920C00600F0A5FF31
:1016300004E080210920C00600F0A1FFFFF77AFF37
:1016400040210920C00600F098FFFFF773FF4021FA
:101650000920C00600F093FFFFF76CFF2046E10F62
:101660000918C9050C0E002CD9DCFFF77AFF4021C0
:101670000920C00600F081FF80210920C00600F08B
:1016800062FF064640210920C00600F078FF304680
:1016900070BD10B5FFF753FF40210920C00600F0D0
:1016A0006EFFFFF747FF40210920C00600F065FFED
:1016B000FFF740FF80210920C00600F060FFFFF720
:1016C00039FF40210920C00600F059FFFFF732FF23
:1016D00040210920C00600F050FFFFF72BFF8021BA
:1016E0000920C00600F049FFFFF724FF4021092030
:1016F000C00600F044FF10BDFEB505460E46174675
:101700000024002001900090FFF7C3FF002F02D0BB
:10171000012F0CD105E00320FFF77AFF0019C4B2B6
:1017200006E00520FFF774FF0019C4B200E000BF17
:1017300000BFFFF716FF00BF80210920C00600F0A0
:1017400002FF0028F8D10120FFF71BFF01900120C4
:10175000FFF717FF00900020FFF713FF307001988C
:1017600000020099084328802046FEBD10B5FFF70F
:10177000E6FE80210920C00600F0FFFE402109207E
:10178000C00600F0FCFE00240FE040210920C00646
:1017900000F0F3FEFFF7CEFE40210920C00600F066
:1017A000EEFEFFF7C7FE601CC4B2092CEDDBFFF7AD
:1017B00070FF10BD3EB5002100910024FFF7D6FF59
:1017C0000022694602A8FFF797FF0019C4B2012260
:1017D000694601A8FFF790FF0019C4B2234B244AC1
:1017E000684681880089FFF735FE3EBD1CB50121A2
:1017F000480401F0E5FA8020009003216846417119
:10180000012101710021817169460920C00600F0A3
:1018100037FE40200090032168464171012101718B
:1018200069460920C00600F02BFE1CBD10B500243F
:10183000FFF79CFF1E20FFF7EBFE0019C4B2204605
:1018400010BD0000666620C20AD7233CC5FE02C058
:10185000BD52163DF624D6B5ACC5A7380000C84128
:101860000000C8427B14AE47E17A843FE0000020CC
:10187000DC000020F0B585B081480168814800682F
:1018800003F082FE68D07E4800687E4908607E4989
:101890007C48006803F01DFD019003F01FFE6421E9
:1018A000029003F0A9FCC6B277497648006803F0BD
:1018B00010FD009003F012FE0A21019003F09CFC41
:1018C0000A21029003F098FCCDB26F496D48006880
:1018D00003F0FFFC019003F001FE0A21029003F0E7
:1018E0008BFCCCB2B21D69A16B4804F0F3F86A49D5
:1018F0006A48FFF773FBAA1D69A1674804F0EAF87C
:1019000065496648FFF76AFBA21D68A1624804F0BA
:10191000E1F861496148FFF761FB67495948006890
:1019200003F032FE0FD865495648006803F036FED2
:1019300009D8242262A1584804F0CCF856495748E7
:10194000FFF74CFB08E027225DA1534804F0C2F8E2
:1019500051495248FFF742FB5C4801685C48006807
:1019600003F012FE67D0594800685949086046499B
:101970005748006803F0ADFC019003F0AFFD64210F
:10198000029003F039FCC2B203923F49504800680C
:1019900003F09FFC009003F0A1FD0A21019003F0E9
:1019A0002BFC0A21029003F027FCCAB204923649AC
:1019B0004748006803F08DFC019003F08FFD0A2179
:1019C000029003F019FCCFB2039A103241A13248C1
:1019D00004F080F830493148FFF700FB049A1032D8
:1019E0003FA12D4804F076F82B492C48FFF7F6FA72
:1019F0003A4610323DA1284804F06CF826492748A1
:101A0000FFF7ECFA3C493248006803F0C7FD09D8FB
:101A10002A223AA1204804F05DF81F491F48FFF729
:101A2000DDFA08E0272235A11B4804F053F81A49D3
:101A30001A48FFF7D3FA34491248006803F0AEFDA4
:101A400009D32D492248006803F0A8FD03D32F488D
:101A50000088642809DB26222DA10F4804F03AF8FB
:101A60000D490E48FFF7BAFA08E0272228A10A48D4
:101A700004F030F808490948FFF7B0FA05B0F0BDA6
:101A8000DC000020E40000200000204170322E70B5
:101A900069633D25640000003801002000380140E2
:101AA00070312E7069633D256400000070302E7027
:101AB00069633D25640000000000D84100009041AA
:101AC0007031302E7069633D25640000E000002015
:101AD000E80000207031392E7069633D25640000F4
:101AE00070342E7069633D256400000070332E70E1
:101AF00069633D256400000000008C427031342E83
:101B00007069633D256400000000E041EE000020A4
:101B100070392E7069633D256400000070B504467D
:101B20000020A5490880002508E06800205AA24945
:101B300009884018A0490880681CC5B21E2DF4DB36
:101B40009E480078012844D1A08F0002E18F401800
:101B50009949098888423CD1207A0002618908436A
:101B600097490880207B0002E18908439549088055
:101B7000207C0002618A084393490880207D00028E
:101B8000E18A084391490880207E0002618B084366
:101B90008F490880207F0002E18B08438D4908802F
:101BA000208C0002618C08438B490880A08C0002C5
:101BB000E18C084389490880208D0002618D08432B
:101BC0008749088020212046FEF757FD00207B49E9
:101BD000087070BDF0B587B00546002468E028465F
:101BE00003F075FC0746A0007E4A1158384603F002
:101BF000D5FC40D2284603F06AFC0746601C8000F2
:101C0000784A1158384603F0BFFC34D26100764A56
:101C1000505A03F05CFC0690284603F058FC0290F2
:101C2000A000704A1158029803F04BFBA2006D4BC4
:101C300004909958621C9200985803F042FB611C72
:101C40004900694A0290515A6200674B9A5A881AB1
:101C500003F032FC0190029903F078FB03900499A1
:101C600003F037FB0590069903F0DAFA074603F014
:101C70004EFC86B21AE0284603F029FC0746A00075
:101C8000584A1158384603F07FFC03D1600056498A
:101C90000E5A0BE0284603F01AFC07465148C1696A
:101CA000384603F07BFC01D84F48C689601CC4B29B
:101CB000082C94DB304607B0F0BDF8B54B480088DF
:101CC00040490988884276D03E48008847490880C4
:101CD0007D21C9004548008803F08EFAC7B27D21F6
:101CE000C9004248008803F087FA009164210098F7
:101CF00003F082FAC6B264213C48008803F07CFA03
:101D000000910A21009803F077FAC5B20A213748FA
:101D1000008803F071FACCB23A461A3234A137483F
:101D200003F0D8FE35493648FFF758F932461A32E3
:101D300034A1324803F0CEFE30493148FFF74EF966
:101D40002A461A3232A12D4803F0C4FE2B492C48F2
:101D5000FFF744F922461A3230A1284803F0BAFEB0
:101D600026492748FFF73AF920480088FFF732FF55
:101D70002D490880084602882CA1204803F0AAFEBD
:101D80001E491F48FFF72AF927480088642809DB05
:101D9000252229A1194803F09DFE18491848FFF78C
:101DA0001DF908E0272224A1144803F093FE1349EB
:101DB0001348FFF713F9F8BD08010020BD0000200B
:101DC000F6000020F8000020FA000020FC000020AF
:101DD000FE0000200001002002010020040100207C
:101DE000060100202C6600081C660008EC0000209C
:101DF00070382E7069633D256400000038010020B2
:101E00000038014070372E7069633D256400000082
:101E100070362E7069633D256400000070352E70A9
:101E200069633D2564000000EE00002074322E74CA
:101E300078743D22256422007031312E7069633D33
:101E40002564000010B50446B648844207D101213C
:101E5000401500F0EDFF0021601500F0E9FF10BD16
:101E600010B50022C268B04B1A400C7964030B68AD
:101E700023438C682343CC6823430C6923434C6978
:101E800023431A43C26010BD0021016001718160CB
:101E9000C160016141617047002904D0826801235B
:101EA0001A43826003E0826802231A43826070470B
:101EB00001617047002A03D003690B43036102E00C
:101EC00003698B4303617047002905D0C268012371
:101ED000DB031A43C26004E0C2680123DB039A43B8
:101EE000C2607047002905D0C26801239B031A43D2
:101EF000C26004E0C26801239B039A43C26070473A
:101F0000002905D0C2680123DB051A43C26004E042
:101F1000C2680123DB059A43C26070470B04134378
:101F20000362704710B50A460021C1681F24A40649
:101F30000B46A34319460B4613431946C16010BD17
:101F4000002905D0C26801239B051A43C26004E042
:101F5000C26801239B059A43C2607047002807D0DE
:101F6000724989680122D2051143704A916006E0E6
:101F70006E4989680122D20591436C4A916070478D
:101F8000002807D069498968012292051143674AF0
:101F9000916006E065498968012292059143634A90
:101FA00091607047002807D06049896801221206B5
:101FB00011435E4A916006E05C498968012212067D
:101FC00091435A4A9160704710B50B460021846ACC
:101FD0001C43846200BF0C4614432146416110BD7E
:101FE000002905D0C26801235B031A43C26004E0E4
:101FF000C26801235B039A43C2607047002905D081
:10200000C26801231B041A43C26004E0C2680123B2
:102010001B049A43C2607047002905D0C26801239F
:102020001B031A43C26004E0C26801231B039A43E6
:10203000C260704730B501460020002200238C6842
:102040000125ED072C438C6000BF8C68E30FDB0794
:10205000521C0F242403A24201D0002BF5D18C681E
:10206000E40FE407002C01D1086C00E0002030BD33
:1020700081681022114381607047816804221143F6
:10208000816070470146086C80B27047002904D017
:10209000C26801231A43C26003E0C26852085200BA
:1020A000C2607047C26802239A43C260C2680A4392
:1020B000C2607047002A03D043680B43436002E0CC
:1020C00043688B434360704730B5024600200023CD
:1020D000012424060C40002C05D0946801252D060F
:1020E000AC43234600E013681C460C40002C01D092
:1020F000012000E0002030BD0160704710B50246AD
:102100000020002354680C40234614680C40002C27
:1021100003D0002B01D0012000E0002010BD0160A1
:10212000704700000024014003D2FFFF0027014058
:102130000168A84A1140016000210160416081608E
:10214000C160A549884208D1A349083949680F22CE
:102150001143A14A083A516094E09F4914318842E2
:1021600008D19D4908394968F02211439A4A083A32
:10217000516087E098492831884209D19649083949
:1021800049680F2212021143934A083A516079E0DC
:1021900091493C31884209D18F49083949680F2259
:1021A000120311438C4A083A51606BE08A4950315E
:1021B000884209D18849083949680F22120411431D
:1021C000854A083A51605DE083496431884209D10B
:1021D0008149083949680F22120511437E4A083A9D
:1021E00051604FE07C497831884209D17A490839F9
:1021F00049680F2212061143774A083A516041E0BC
:102200007649884208D17549083949680F22114337
:10221000724A083A516035E070491431884208D159
:102220006E4908394968F02211436C4A083A5160F6
:1022300028E06A492831884209D168490839496843
:102240000F2212021143654A083A51601AE06349AD
:102250003C31884209D16149083949680F2212038B
:1022600011435E4A083A51600CE05C4950318842A3
:1022700008D15A49083949680F2212041143574AB4
:10228000083A5160704710B500220268544B1A405A
:102290000C6A8B6823430C6923434C6923438C6984
:1022A0002343CC6923434C6A23438C6A23431A4358
:1022B0000260CB6843600B6883604B68C36010BDED
:1022C0000021016041608160C16001614161816103
:1022D000C1610162416281627047002904D00268D5
:1022E00001231A43026003E002683A4B1A4002607D
:1022F000704710B5384A083A904200D100E000BF5C
:10230000A82212580B0F9C000F23A3409A43A82326
:102310001A50A82212580B011B091A43A8231A505D
:1023200010BD416070470146486880B27047002A7E
:1023300003D003680B43036002E003688B43036030
:10234000704701460020002201231B070B40002B91
:1023500003D0224B083B1A6802E01F4B083B1A6867
:1023600013460B40002B01D0012000E000207047F5
:10237000012109070140002903D0184908394860A4
:1023800002E01549083948607047014600200022E4
:1023900001231B070B40002B03D0104B083B1A688E
:1023A00002E00D4B083B1A6813460B40002B01D08E
:1023B000012000E0002070470121090701400029A9
:1023C00003D006490839486002E0034908394860EB
:1023D00070470000FEFF00000800024008040240B1
:1023E0000F80FFFF10B504460920C006844209D1C2
:1023F0000121480400F00EFD00210120400400F0FE
:1024000009FD3CE07448844208D10121000200F03B
:1024100001FD0021200200F0FDFC30E06F48844205
:1024200008D10121000200F0F5FC0021200200F09B
:10243000F1FC24E06A48844209D10121080500F03A
:10244000E9FC00210120000500F0E4FC17E06548EC
:10245000844208D10121400200F0DCFC002160022E
:1024600000F0D8FC0BE06048844208D101218805C7
:1024700000F0D0FC00210120800500F0CBFC10BD55
:10248000F0B50A4600210023002400BF3DE00125ED
:102490008D402B4615681D402C469C4234D1157941
:1024A000012D02D01579022D16D185684F00032623
:1024B000BE40B543856055794E00B54086683543CA
:1024C0008560858801268E40B5438580858896790C
:1024D0008E40B6B23543858005684F000326BE4066
:1024E000B543056015794E00B54006683543056073
:1024F000C5684F000326BE40B543C560D5794E0080
:10250000B540C6683543C560491C1029BFD3F0BD2E
:102510003649016000210171012141710021817161
:10252000C171704708B5012212040092009A0A4353
:102530000092009AC261C161009AC261C2690092B0
:10254000C269009208BD02460020138A0B40002B8E
:1025500001D0012000E0002070470146088A704742
:1025600002460020938A0B40002B01D0012000E09E
:10257000002070470146888A704781617047018555
:102580007047002A01D0816100E001857047818297
:102590007047F0B5002300244D07EE0E1546B540F8
:1025A0002B46CD10AE0005462035AD594E07F70E2F
:1025B0000F26BE40B543CE10B60007462037BD51AA
:1025C000CD10AE003D46AD591D432C46CD10AD009B
:1025D0003E467451F0BD0000000400480008004869
:1025E000000C00480010004800140048FFFF0000E5
:1025F0000F49086070470E49486070470C49886071
:1026000070470C480A4908607047094908617047DB
:10261000094807490860704701460020044AD2680B
:102620000A40002A01D0012000E00020704700008D
:1026300000300040AAAA0000CCCC000010B5012157
:10264000080700F003FC00210120000700F0FEFB5A
:1026500010BD002807D04B490968FF220132114301
:10266000484A116006E047490968FF220132914358
:10267000444A1160704701460020424A1068E02336
:1026800002469A43104602460A4310463D4A1060ED
:102690007047002806D03B49096810221143394A87
:1026A000116005E03749096810229143354A1160ED
:1026B0007047002905D0334A52680243314B5A60B3
:1026C00004E0304A526882432E4B5A6070472E49CC
:1026D0000969042291432C4A1161012801D130BFBC
:1026E00002E040BF20BF20BF704710B50246002067
:1026F000244B186880088000034613431846214B7A
:102700001860214B1B69042423431F4C23610129BA
:1027100007D130BF23461B690424A3431A4C23610D
:102720000FE0022907D120BF174B1B690424A343E4
:10273000154C236105E0144B1B6902242343124C02
:10274000236110BD0F480068022108430D4908604D
:102750000D480069042108430B49086130BF7047E8
:1027600001460020074A52680A40002A01D0012091
:1027700000E0002070470349096882001143014AC4
:10278000116070470070004000ED00E0FE480068F6
:1027900001210843FC49086008464068FB4908409D
:1027A000F949486008460068F9490840F649086058
:1027B00008460068012189048843F34908600846F7
:1027C00040683F2109048843EF4948600846C06AD1
:1027D00000090001C8620846006BEE490840EA495A
:1027E00008630846406B400840004863002088604A
:1027F00070470021E44A917011468870704710B507
:1028000002460021002300205111002902D1DE4C94
:1028100023680BE0012902D1DB4C236A06E0022980
:1028200002D1D94C636A01E0D74C636BD106C90E63
:1028300001248C401C40002C01D0012000E000202D
:1028400010BD38B5002000900024002500BF1120E5
:10285000FFF7D5FF05460098401C009005210903AD
:102860000098884201D0002DF1D01120FFF7C7FF5A
:10287000002801D0012400E00024204638BD014694
:102880000020C14A1068F82302469A431046CA0045
:102890001043BD4A10607047002806D0BA49096845
:1028A00001221143B84A116005E0B7490968490897
:1028B0004900B54A1160704701460020B24A506B8A
:1028C000F82302469A431046CA001043AE4A5063AA
:1028D0007047002806D0AC49496B01221143AA4A2F
:1028E000516305E0A849496B49084900A64A51636C
:1028F0007047002806D0A449496B04229143A24A9C
:10290000516305E0A049496B042211439E4A51637B
:1029100070479D49096A490849009B4A116211465E
:10292000096A04229143984A11621146096A0143D7
:10293000116270479449096A18229143924A1162C0
:102940001146096A014311627047002806D08E497A
:10295000496A012211438C4A516205E08A49496A59
:1029600049084900884A51627047874A52687B2368
:10297000DB039A43844B5A601A46526803460B4362
:102980001A43814B5A607047002807D07E49096876
:102990000122120611437C4A116006E07A49096857
:1029A000012212069143784A11607047002807D02F
:1029B0007549496B012212041143734A516306E0C1
:1029C0007149496B0122120491436F4A5163704768
:1029D000014600206C4AD06A0009000102460A4301
:1029E0001046694AD0627047002807D066490968D6
:1029F0000122D2041143644A116006E06249096869
:102A00000122D2049143604A116070475E49C87147
:102A10007047014600205C4A5068800880000246EA
:102A20000A431046584A50607047574840680C2186
:102A30000840704701460020534A5068F023024680
:102A40009A43104602460A4310464F4A5060704768
:102A5000014600204C4A506807231B0202469A4355
:102A6000104602460A431046474A5060704746499E
:102A70004968012292039143434A516011464968D3
:102A800082B21143404A51601146096B921591433D
:102A90003D4A11631146096B020C11433A4A116316
:102AA00070473949096B40229143374A11631146F7
:102AB000096B0143116370473349096B102291433D
:102AC000314A11631146096B0143116370470021BC
:102AD000010F012906D12C4A126B920892002A4B51
:102AE0001A6310E0022907D1274A126B03231B0443
:102AF0009A43254B1A6306E0234A126B03239B0477
:102B00009A43214B1A63204A126B02431E4B1A63ED
:102B100070471D49096B802291431B4A116311467E
:102B2000096B014311637047FEB50446002500267A
:102B300000200290019000900027134840680C216B
:102B400008400546002D06D0042D07D0082D08D0DA
:102B50000C2D39D135E01048206038E00E48206057
:102B600035E0094840680F218904084006460648B8
:102B700040680321C90308400290B00C861C0298EB
:102B8000002810D105480BE0001002400CB8FFF8F7
:102B9000FFFFF6FEACFEF0FF00127A0000093D00D8
:102BA000374647430BE0C248C06A0007000F401C8D
:102BB0000190C048019902F009FB70430746276065
:102BC00005E0BD48206002E0BA48206000BF00BFB9
:102BD000B7484068F021084005462D09B748405DD8
:102BE000009020680099C8406060B14840680721A3
:102BF0000902084005462D0AB048405D0090616812
:102C00000098C140A160AA48006BFF210131084033
:102C1000884202D0AA48E0600DE0A5484068012142
:102C200089030840884203D0A0684008E06002E0C1
:102C3000A0688008E0609E48006B40210840402862
:102C400002D0A048206102E00120C0032061984822
:102C5000006B10210840102802D09648606101E006
:102C6000206860619248006B8007800F002802D1C5
:102C7000A068A06119E08E48006B8007800F0128D2
:102C800002D12068A06110E08948006B8007800FA6
:102C9000022802D18003A06107E08548006B80070D
:102CA000800F032801D18348A0618148006B032174
:102CB00009040840002802D1A068E06120E07C48B7
:102CC000006B03210904084001210904884202D154
:102CD0002068E06114E07648006B03210904084095
:102CE00001214904884202D18010E06108E0704867
:102CF000006B032109040840884201D16D48E0615E
:102D00006B48006B032189040840002802D1A068A9
:102D1000206220E06648006B0321890408400121FD
:102D20008904884202D12068206214E06048006B68
:102D30000321890408400121C904884202D10011FD
:102D4000206208E05A48006B032189040840884249
:102D500001D1584820625648006B802108408028E5
:102D600002D05548606200E06762FEBD5049096AC2
:102D700001434F4A11627047002807D04C49096A45
:102D80000122D20311434A4A116206E04849096A06
:102D90000122D2039143464A11627047002807D0AE
:102DA0004349096A012212041143414A116206E0B3
:102DB0003F49096A0122120491433D4A116270475A
:102DC000002905D03A4A52690243394B5A6104E05E
:102DD000374A52698243364B5A617047002905D001
:102DE000334A92690243324B9A6104E0304A926955
:102DF00082432F4B9A617047002905D02C4AD26933
:102E000002432B4BDA6104E0294AD2698243284B02
:102E1000DA617047002905D0254A926A0243244BA3
:102E20009A6204E0224A926A8243214B9A62704776
:102E3000002905D01E4AD26802431D4BDA6004E027
:102E40001B4AD26882431A4BDA607047002905D0CA
:102E5000174A12690243164B1A6104E0144A1269B8
:102E60008243134B1A617047002905D0104A527AE9
:102E700002430F4B5A7204E00D4A527A82430C4BC4
:102E80005A7270470A48406A0121090608430849F6
:102E90004862704701460020054A92680A40002AAD
:102EA00001D0012000E0002070470149887270477E
:102EB0000010024000127A00006CDC020A010020BF
:102EC000809FD5001280000008B5002200920020EB
:102ED0000021FE4A926820231A40002A01D00120D6
:102EE00025E0CA22F94B5A6253225A621A46D26826
:102EF000A0239A43F54BDA6000BFF44AD26820233E
:102F00001A401146009A521C00929B02009A9A4263
:102F100001D00029F1D0ED4AD26820231A40002ABE
:102F200001D0012000E00020FF22E84B5A6208BDDA
:102F300008B50022009200200021E44AD268402314
:102F40001A40002A1BD1421EE04BDA6000BFDF4A64
:102F5000D26840231A401146009A521C00921B026C
:102F6000009A9A4201D00029F1D0D84AD268402371
:102F70001A40002A01D0012002E0002000E00120D8
:102F800008BD10B50024CA20D049486253204862C9
:102F9000FFF7CEFF002800D11FE00020CB490860DA
:102FA000CB484861CB48486008468068002088606C
:102FB000C94808610020C861C862C863C34940317C
:102FC0004860C249C860C14940310860FFF77CFFD2
:102FD000002801D1002400E00124FF20BB49486201
:102FE000204610BDB948C06880218843B749C860F1
:102FF000704730B504460025CA20B44948625320C2
:103000004862FFF795FF002800D117E0AF488068BD
:1030100040218843AD49886008468068216808439C
:10302000AA498860A068086108460069A188090467
:103030000843A6490861FFF7D5FF0125FF20A349F2
:103040004862284630BD002101607F214160FF2198
:1030500081607047002803D0FF219C4A516204E040
:10306000CA219A4A516253215162704730B50446D1
:103070000025CA209549486253204862FFF758FF4F
:10308000002800D111E0002C06D090488068102163
:1030900008438E49886005E08C4880681021884389
:1030A0008A498860FFF79EFF0125FF208749486213
:1030B000284630BDCA21854A5162532151620028F9
:1030C00006D01146896820221143804A916005E0AC
:1030D0007E498968DF2211407C4A9160FF217B4A4A
:1030E000516270470146002204E0501CC2B20846FB
:1030F0000A38C1B20A29F8DA1007000E08437047EF
:10310000014600BFF020084000110A235843024640
:103110000807000F8018C0B27047F8B505460C4686
:10312000002600200090002D0AD1684880684021C8
:103130000840002800D002E00020E07000BF0EE050
:103140006248806840210840002804D02078FFF7BA
:10315000D7FF064602E00020E07000BF00BF002D50
:103160000BD020780004617809020843A178084355
:10317000E17809040843064610E02078FFF7B2FF23
:1031800007046078FFF7AEFF00020743A078FFF75F
:10319000A9FF0743E078000407433E46CA204B4995
:1031A000486253204862FFF7C3FE002801D1009017
:1031B00016E04A48304045490860FFF713FF43488E
:1031C000806820210840002808D1FFF77DFE0028F4
:1031D00001D1009004E00120009001E00120009066
:1031E000FF203A4948620098F8BD0021C170017083
:1031F00041708170704770B506460C460025334813
:1032000000683649084005463F2000042840000C6D
:1032100020707F2000022840000A60706806400E7F
:10322000A070012080052840000CE070002E0BD11A
:103230002078FFF765FF20706078FFF761FF60700E
:10324000A078FFF75DFFA07070BD00201F49886A5D
:1032500049687047F8B505460C46002600200090E6
:10326000002D08D1607810210840102803D1607823
:1032700088430A306070002D00D108E06078FFF7C5
:103280003FFF0646A078FFF73BFF064600BF002D34
:103290000BD0E0780004617809020843A178084364
:1032A00021784903084306461BE0E078FFF71AFF40
:1032B00007046078FFF716FF00020743A078FFF7C6
:1032C00011FF074320784003074309E0002800402E
:1032D000FFFF000001210000FF007F007F7F7F00D3
:1032E0003E46CA20FA49486253204862FFF720FE52
:1032F000002801D1009016E0F6483040F4494860BB
:10330000FFF770FEF248806820210840002808D1AD
:10331000FFF7DAFD002801D1009004E001200090C1
:1033200001E001200090FF20E94948620098F8BDC3
:1033300001210170817041700021C170704770B52A
:1033400006460C460025E2484068E249084005462A
:10335000FF2000042840000CE0701F2000022840DD
:10336000000A6070A806800EA07007204003284065
:10337000400B2070002E0DD1E078FFF7C1FEE07009
:103380006078FFF7BDFE6070A078FFF7B9FEA0700F
:103390002078207070BDF8B5054614460026002D33
:1033A0000ED1CB48806840210840002800D002E0C0
:1033B0000020E07000BFA068002800D11BE01AE0E8
:1033C000C348806840210840002804D02078FFF7D7
:1033D00097FE064602E00020E07000BFA0680028CB
:1033E00004D1207BFFF78CFE064604E0207BFFF72C
:1033F00087FE064600BF002D12D0207800046178B9
:1034000009020843A1780843E17809040843217BB5
:1034100009060843A168084361680843064619E0A5
:103420002078FFF75FFE07046078FFF75BFE00027D
:103430000743A078FFF756FE0743E07800040743F0
:10344000207BFFF74FFE00060743A0680743606834
:1034500007433E46CA209E494862532048620846B8
:10346000C661FF204862F8BD0021C1700170417043
:103470008170816001210173002141607047F8B5BE
:1034800006460F46144600259148C5693F200004B2
:103490002840000C20707F2000022840000A607045
:1034A0006806400EA070012080052840000CE070E6
:1034B0003F2000062840000E20730120800728408E
:1034C000A060854828406060002E0FD12078FFF76B
:1034D00017FE20706078FFF713FE6070A078FFF78A
:1034E0000FFEA070207BFFF70BFE2073F8BD38B5F0
:1034F00002460024009400230020CA24744D6C620C
:1035000053246C62002905D02C46A4681443AC6097
:1035100001201DE06E4CA46894436D4DAC6000BF6B
:103520006B4CE468150A2C402346009C641C0094F4
:103530000125AD03009CAC4201D0002BF0D0644CBF
:10354000E468150A2C40002C01D1002000E0012085
:10355000FF245F4D6C6238BD30B503460020CA249D
:103560005B4D6C6253246C6214060C432046584C2D
:1035700040346060FF246C6230BD01460020544A34
:10358000403252685004400C7047CA21504A516280
:103590005321516211468968C908C90091601146DA
:1035A000896801439160FF2151627047CA21484AEE
:1035B00051625321516211464861FF2151627047A7
:1035C0004348406980B2704718B501460023009314
:1035D00000220020CA233E4C636253236362002909
:1035E00007D023469B6824152343394CA360012050
:1035F0001EE0374B9B680124A402A343344CA36014
:1036000000BF334BDB68042423401A46009B5B1C3D
:1036100000932403009BA34201D0002AF1D02C4B3D
:10362000DB6804242340002B01D1002000E00120AE
:10363000FF23274C636218BDCA22254B5A625322CE
:103640005A621A46926801239B049A43204B9A605F
:103650001A46926803460B431A431D4B9A60FF2299
:103660005A6270471A4880680121890408407047EF
:10367000CA22174B5A6253225A621A46926807238B
:103680001B059A43124B9A601A46926803460B43F5
:103690001A430F4B9A60FF225A627047CA210C4AA4
:1036A000516253215162002807D0114689680122D6
:1036B000D2051143064A916006E005498968012256
:1036C000D2059143024A9160FF21014A516270473D
:1036D000002800403FFFFF0080808080CA21FB4A15
:1036E000516253215162114689680122D2049143EB
:1036F000F64A91601146896801439160FF21516249
:10370000704770B5034600200024CA25EF4E75624D
:10371000532575623546ED68B6133540002D0BD044
:1037200000E0641CE94DED68012636043540002DAB
:1037300002D03511AC42F4D1E44DED6801263604D7
:103740003540002D06D11D460D431543DF4EF56370
:10375000012000E00020FF25DC4E756270BD10B531
:103760000A460021D94B9B68D94C23401946002AB0
:1037700004D00123DB020343194302E00B46034359
:103780001946CA23D14C636253236362234699606E
:10379000FF23636210BDF7B50C46154600260027CF
:1037A000CA48006BCB4908400646C848406BCA4926
:1037B000084007463F2000043040000C20707F2066
:1037C00000023040000A60707006400EA0700120B8
:1037D00080053040000CE0700020E8701F200002DF
:1037E0003840000A6870B806800EA87007204003B1
:1037F0003840400B28700098002817D12078FFF738
:103800007FFC20706078FFF77BFC6070A078FFF78A
:1038100077FCA0706878FFF773FC6870A878FFF7F2
:103820006FFCA8702878FFF76BFC2870FEBDA748D6
:10383000806B7047002908D1A44A403212684300C7
:103840009A43A24B40331A6007E0A04A4032126804
:1038500043001A439D4B40331A607047002907D03C
:103860009A4A403212680243984B40331A6006E08D
:10387000964A403212688243944B40331A60704734
:103880009249403109680322D20291438F4A403263
:103890001160114609680143116070478B4940313E
:1038A0000968072212029143884A4032116011468A
:1038B0000968014311607047844940310968032257
:1038C00052039143814A4032116011460968014315
:1038D00011607047002808D07C4940310968802277
:1038E00011437A4A4032116007E078494031096853
:1038F00080229143754A403211607047002809D0F8
:103900007249403109680122D20391436F4A403223
:10391000116008E06D49403109680122D20311436A
:103920006A4A40321160704708B500220092674A27
:10393000503200928200009BD2180092009A1160CF
:1039400008BD08B501460020009060485030009046
:103950008800009A801800900098006808BD5B49B4
:1039600040310968012292049143584A4032116063
:1039700011460968014311607047F0B504460D46D1
:1039800000270026CA205149486253204862084651
:10399000C0680821084000280AD000E0761C4B4887
:1039A000C06808210840002802D048028642F5D1AC
:1039B0004648C06808210840002813D14348806861
:1039C0001021084000280BD1284620433F49C862F7
:1039D000FFF77AFA002801D1002704E0012702E06E
:1039E000002700E00027FF20384948623846F0BD34
:1039F00010B5CA22354B5A6253225A62002911D09F
:103A00001A46926804240346A3431A432F4B9A6034
:103A10002E4A40321268042303401A432B4B403392
:103A20001A6010E0294A926804240346A3439A438B
:103A3000264B9A60254A40321268042303409A4379
:103A4000224B40331A60FF22204B5A6210BD10B542
:103A50000146002000221D4BDB68204C23401A4603
:103A600013460B40002B01D0012000E0002010BDC8
:103A700080210143C903C90BC943144AD26880237A
:103A80001A401143114AD160704770B501460020B9
:103A9000002200230D4C4034246804252C4022468B
:103AA0000A4CA4680C408E0C0D46F540ED0B1540F9
:103AB0002C432346054CE4680D092C402246002B7C
:103AC0000ED094B2002C0BD001200AE00028004058
:103AD000F7F7FFFF7F7F7F003FFFFF00787901004E
:103AE000002070BD10B50021010980220A4392B266
:103AF000D243044BDB68802423401A43014BDA6035
:103B000010BD00000028004010B50446F74884426C
:103B100008D10121C014FFF78BF90021E014FFF751
:103B200087F962E001208007844208D1012108461C
:103B3000FFF78CF900210120FFF788F955E0EC48E8
:103B4000844208D101210220FFF780F900210220E0
:103B5000FFF77CF949E0E748844208D101211020B1
:103B6000FFF774F900211020FFF770F93DE0E248FB
:103B7000844208D101212020FFF768F9002120208C
:103B8000FFF764F931E0DD48844208D10121801556
:103B9000FFF75CF90021A015FFF758F925E0D84898
:103BA000844209D101210804FFF742F900210120D4
:103BB0000004FFF73DF918E0D248844209D1012101
:103BC0004804FFF735F9002101204004FFF730F9E0
:103BD0000BE0CD48844208D101218804FFF728F981
:103BE000002101208004FFF723F910BD0022028884
:103BF000BE4B984206D001239B07984202D0BC4B93
:103C0000984203D1C14B1A404B881A43B94B984292
:103C100003D0BF4B1A400B891A4302804B68C36222
:103C20000B880385B14B984208D0B54B984205D01C
:103C3000B44B984202D0B44B984201D18B7A0386A0
:103C40000123838270470021C94341600021018024
:103C500001814180817270470185828270470A46E6
:103C600000210188A94B19400B46134319460180D6
:103C7000704741627047C16270470146486A7047A9
:103C80000146088D7047002904D0028802231A4398
:103C9000028004E002889D4B6E331A400280704718
:103CA000002904D0028804231A43028004E0028819
:103CB000964B6C331A4002807047002904D002886A
:103CC00080231A43028004E00288904B103B1A4084
:103CD0000280704702888D4B68331A400280028848
:103CE0000A43028070470288894B1A40028002888A
:103CF0000A4302807047002904D0028801231A4336
:103D0000028004E00288814B6F331A4002807047C2
:103D10000A884B881A438B881A43CB881A430B892D
:103D20001A434B891A438B891A4344231A5270470A
:103D30000021018041808180C18001814181818198
:103D40007047002907D04422125A0123DB031A438B
:103D500044231A5205E04422125A53045B0C4422B5
:103D60001352704770B5002400220023058C674E63
:103D70006F3635400584028C8388048B634D2C405C
:103D8000B51E2C400D882C43751E2A408D892A4370
:103D90004D882A43554DA84208D0594DA84205D018
:103DA000584DA84202D0584DA84212D1574D6835FF
:103DB0002A40CD892A43554D6C352A408D882A43A7
:103DC000524D903D2B40534D2B400D8A2B434D8A35
:103DD0002B43838004838D684563028470BD70B576
:103DE000002400220023058C484E603635400584AF
:103DF000028C8388048B484D2C40454D2C400D7817
:103E00002D062D0C2C43414D50352A408D892D0512
:103E10002D0C2A434D882D052D0C2A43334DA842E5
:103E200002D0374DA8421CD13C4D2B400D8AAD0429
:103E30002D0C2B432D4DA84213D1344D103D2A405B
:103E4000CD892D052D0C2A43304D30352A408D88E3
:103E50002D052D0C2A43324D2B404D8AAD042D0CDF
:103E60002B43838004838D688563028470BD70B5A5
:103E7000002400220023058C244E903E354005840A
:103E8000028C8388848B214D2C40204D6D352C4035
:103E90000D882C431F4D2A400D7B2D062D0C2A43E7
:103EA0008D782D062D0C2A43104DA84217D11C4D9C
:103EB0002A408D7B2D062D0C2A43184D2A400D7962
:103EC0002D062D0C2A43174D2B40174D2B400D8AE4
:103ED0002D052D0C2B434D8A2D052D0C2B43838056
:103EE00084838D68C563028470BD0000002C01408E
:103EF000000400400010004000140040002000407A
:103F00000040014000440140004801408FFF000094
:103F1000FFFC0000FFFD0000FF8F0000FFFB000022
:103F2000FFF70000FFEF0000FFDF000070B5002288
:103F300000230024058CF94E35400584038C8488C9
:103F4000828BF74D2A40F74D2A400D782D062D0C17
:103F50002A43F54D2B400D7B2D072D0C2B438D78DF
:103F60002D072D0C2B43F14DA84205D1F04D2C40CF
:103F70000D8AAD052D0C2C43848082838D680564E9
:103F8000038470BD00210180418081808160818136
:103F9000C18101824182704770B503460020002430
:103FA0001846183001258D40ACB21D8CA5431D84E8
:103FB000002901D0082909D14D102818056870265C
:103FC000B54305600568154305600DE00D1F2D0420
:103FD0006D0C2818056807263603B543056005688B
:103FE0001606360C3543056070BD4163704781632A
:103FF0007047C1637047016470470A460021018B16
:10400000CC4B19400B4613431946018370470A46AF
:104010000021018BC24B194013061B0C194301836D
:1040200070470A460021818BC24B19400B4613434F
:104030001946818370470A460021818BB84B19408D
:1040400013061B0C194381837047002904D0828812
:1040500001231A43828004E08288B64B6F331A40F2
:10406000828070470A460021018BB24B68331940A9
:104070000B4613431946018370470A460021018B02
:10408000AD4B194013061B0C1943018370470A46B8
:104090000021818BA74B683319400B461343194607
:1040A000818370470A460021818BA34B1940130678
:1040B0001B0C1943818370470A460021018B9D4BDD
:1040C0006C3319400B4613431946018370470A4667
:1040D0000021018B994B194013061B0C19430183D6
:1040E00070470A460021818B924B6C3319400B4676
:1040F00013431946818370470A460021818B8F4BF9
:10410000194013061B0C1943818370470A4600218E
:10411000018B884B103B19400B4613431946018312
:1041200070470A460021018B4904490C13061B0CF9
:104130001943018370470A460021818B7D4B103B58
:1041400019400B4613431946818370470A460021E4
:10415000818B4904490C13061B0C1943818370475A
:104160000A460021018C734B6E3319400B461343F2
:104170001946018470470A460021018C6D4B683353
:1041800019400B4613431946018470470A46002123
:10419000018C684B5033194013051B0C19430184E3
:1041A00070470A460021018C624B103B19401305F1
:1041B0001B0C1943018470470A460021018C604B97
:1041C000194013061B0C1943018470470A4600214D
:1041D000018C594B194013061B0C1943018470477D
:1041E0000A460021018C504B194013071B0C194340
:1041F0000184704702894F4B68331A40028102895B
:104200000A430281704730B5002301248C40A3B2D9
:10421000048C9C430484048C15468D40ADB22C4321
:10422000048430BD30B5002304248C40A3B2048C38
:104230009C430484048C15468D40ADB22C43048409
:1042400030BD002904D0828804231A43828004E010
:104250008288384B6C331A4082807047828B394B8E
:104260001A408283828B0B061B0C1A438283704791
:10427000F8B50C460021002500260096068C274F35
:104280003E400684818B058C2607360C00962E4E08
:1042900031401606360C31431E07360C31432B4E87
:1042A000354001273F03009E3E433543818305840B
:1042B000F8BD828B1F4B64331A408283828B0A4382
:1042C00082837047F8B50C46002100250026009631
:1042D000068C184F903F3E400684818B058C260645
:1042E000360C0096134E833E31401E05360C1643A5
:1042F0003143174E3540FF270137009E3E4335437B
:1043000081830584F8BD028B0E4B1A400283028B19
:104310000B061B0C1A43028370470000FFEF0000DE
:10432000FF8F0000FFFC0000FFDF0000002C0140B9
:10433000FFBF00008FFF0000FFF70000FFFB000041
:10434000FFFD0000FFF30000FF0C0000FF5F000016
:10435000FFF50000F8B50C46002100250026009668
:10436000068CE64F3E400684018B058C2605360CF4
:104370000096E34E31401E07360C31431606360CCC
:104380003143DE4E903E35401027009E3E4335437C
:1043900001830584F8BD028BD84B1B1D1A40028394
:1043A000028B0A4302837047F0B50C4600210025BA
:1043B000068CD24F0F373E400684018B058CCF4EC2
:1043C000E33E31401E05360C16433143CB4EB61D3D
:1043D000354001262643354301830584F0BD70B581
:1043E00005460C46208800280AD12389A2886188C6
:1043F0002846FFF7D9FFE1882846FFF7CCFF25E0E4
:10440000208804280AD12389A28861882846FFF7DA
:10441000A1FFE1882846FFF776FF17E020880828EB
:104420000AD12389A28861882846FFF74BFFE188DB
:104430002846FFF73EFF09E02389A28861882846C5
:10444000FFF716FFE1882846FFF708FF70BD00213F
:1044500001804180012181800021C180018170475C
:10446000F8B505460C46002601276088002801D1D2
:10447000022600E00026A088012801D1022700E0E2
:1044800001272088002814D12389A2886188284622
:10449000FFF78AFFE1882846FFF77DFF23893A4628
:1044A00031462846FFF756FFE1882846FFF72BFFE5
:1044B00013E02389A28861882846FFF74BFFE18833
:1044C0002846FFF720FF23893A4631462846FFF762
:1044D0006BFFE1882846FFF75EFFF8BD0146486B99
:1044E00070470146886B70470146C86B70470146AC
:1044F000086C7047002A03D083890B43838102E054
:1045000083898B43838170478182704702460020F4
:10451000138A0B40002B01D0012000E000207047DF
:10452000CA430282704730B50246002000230024AF
:10453000158A0D402B4695890D402C46002B03D043
:10454000002C01D0012000E0002030BDCA430282CF
:10455000704710B50B4613434824235210BD002A60
:1045600003D083890B43838102E083898B4383815A
:104570007047002904D0828808231A43828004E00F
:1045800082885E4B08331A408280704701895B4AFB
:1045900009321140018170470A4600210189574BB9
:1045A000603B19400B46134319460181704730B5F3
:1045B00004460D4629462046FFF7EEFF20890721D5
:1045C0000843208130BDF8B504460D4616461F4607
:1045D000602D06D13B46012231462046FFF7BAFE48
:1045E00005E03B46012231462046FFF7DDFE294625
:1045F0002046FFF7D1FF2089072108432081F8BD1D
:1046000030B50C4600210189C9B21D062D0C154399
:1046100025432943018130BDFFB505460E461746A7
:1046200000243A4631462846039BFFF7E9FF2C89D0
:1046300032480930044007200443304860380440C1
:10464000702004432C81FFBDF0B504460D4616468C
:104650001F463B46324629462046FFF7D1FF2089B8
:104660000121890308432081F0BD8288234B603BF0
:104670001A40828082880A438280704702891F4BD9
:1046800009331A40028102890A4302817047028974
:104690001A4B703B1A40028102890A43028170471B
:1046A000F0B50C460021002500260189058B068CFB
:1046B000124F093739400F4627433946114F3D40C5
:1046C000FF2702373D430D4F9A3F3E401F053F0CE9
:1046D00017433E43018105830684F0BD002904D0C1
:1046E000828880231A43828004E08288034B703BD7
:1046F0001A4082807047502211527047EFFF00002D
:10470000FF0C0000FCFC000010B50446F848844291
:1047100009D101218803FEF78BFB002101208003D2
:10472000FEF786FB56E0F348844209D10121480494
:10473000FEF78CFB002101204004FEF787FB49E0D7
:10474000ED48844209D101218804FEF77FFB002156
:1047500001208004FEF77AFB3CE0E848844209D15E
:104760000121C804FEF772FB00210120C004FEF7FE
:104770006DFB2FE0E248844209D101210805FEF7D4
:1047800065FB002101200005FEF760FB22E0DD480B
:10479000844208D101212020FEF74AFB002120207D
:1047A000FEF746FB16E0D848844208D1012140209C
:1047B000FEF73EFB00214020FEF73AFB0AE0D3481B
:1047C000844207D101218020FEF732FB00218020A6
:1047D000FEF72EFB10BDF0B58BB004460D4600274A
:1047E00000200A900026206840084000206066688B
:1047F00003210903304688430646A86806436660DD
:104800002668C3480640E968686808432969084380
:1048100006432660A66803210902304688430646FF
:1048200068690643A6606846FEF77EF9B048844290
:1048300002D106980A900DE0AE48844202D1079852
:104840000A9007E0AC48844202D108980A9001E03F
:1048500002980A9020680121C903084000280CD062
:1048600029680A9A500000F0B1FC074629680A9AA4
:10487000500000F0ABFC0E4609E029680A9800F0F1
:10488000A5FC074629680A9800F0A0FC0E46286897
:104890004008B04200D87F1C20680121C9030840AD
:1048A000002806D03807460F38469A49084030435A
:1048B0000746A7810BB0F0BD4B21C9010160002163
:1048C00041608160C1600C2101610021416170473C
:1048D00010B5002242680F2424021346A3431A464F
:1048E0004C680B6823438C682343CC6823431A43EA
:1048F000426010BD0021016041608160C16070476D
:10490000002904D0026801231A43026003E0026810
:104910005208520002607047002A03D003680B431C
:10492000036002E003688B4303607047002905D0F1
:1049300002680123DB031A43026004E002680123DA
:10494000DB039A4302607047002905D08268012387
:10495000DB021A43826004E082680123DB029A438F
:1049600082607047002905D042680123DB041A43A6
:10497000426004E042680123DB049A4342607047CE
:10498000002905D0426801239B041A43426004E0D9
:10499000426801239B049A4342607047002A03D077
:1049A00043680B43436002E043688B4343607047B6
:1049B000002905D042680123DB031A43426004E06A
:1049C00042680123DB039A4342607047002905D007
:1049D00042680123DB051A43426004E04268012378
:1049E000DB059A43426070474269120E120642612B
:1049F00042690A4342617047028AFF231B021A4040
:104A00000282028A0A4302827047002904D00268A7
:104A100002231A43026003E0026802239A43026001
:104A20007047826803231B059A43826082680A43A9
:104A300082607047002905D0426801231B051A4394
:104A4000426004E0426801231B059A4342607047BC
:104A5000426803235B059A43426042680A4342600E
:104A60007047CA05D20D028570470146888CC00583
:104A7000C00D704742681202120A426042680B067B
:104A80001A4342607047002905D0026801235B0386
:104A90001A43026004E0026801235B039A43026048
:104AA000704702680123DB029A43026002680A43EE
:104AB00002607047426810239A43426042680A438A
:104AC00042607047426820239A43426042680A432A
:104AD00042607047002905D0426801239B031A43B6
:104AE000426004E0426801239B039A43426070479E
:104AF000003801400044004000480040004C0040A5
:104B0000005000400014014000180140001C01400A
:104B1000F3E9FFFFF0FF0000002904D082680823BA
:104B20001A43826003E0826808239A4382607047D8
:104B3000028AD2B20282028A0B021A4302827047B0
:104B4000002904D0826820231A43826003E082682F
:104B500020239A4382607047002904D08268102382
:104B60001A43826003E0826810239A438260704790
:104B7000826807235B049A43826082684B041A436D
:104B80008260704742691202120A426142690B0652
:104B90001A4342617047826804239A4382608268A4
:104BA0000A4382607047002904D0826802231A43B6
:104BB000826003E0826802239A4382607047002982
:104BC00005D0826801239B031A43826004E0826857
:104BD00001239B039A438260704782680123DB03B1
:104BE0009A43826082680A438260704702681F238A
:104BF0005B059A43026002684B051A4302607047E6
:104C000002681F231B049A43026002680B041A43C4
:104C100002607047002A03D083680B43836002E080
:104C200083688B4383607047826801235B039A43E8
:104C3000826082680A4382607047F8B503460024A8
:104C4000002600960025002018460E04340ECEB231
:104C500000960127009EB7403D46022C01D1001D61
:104C600002E0032C00D10830002A03D006682E434E
:104C7000066002E00668AE430660F8BD002A03D075
:104C8000038B0B43038302E0038B8B430383704747
:104C9000826801231B039A43826082680A43826010
:104CA000704702460020D3690B40002B01D0012041
:104CB00000E0002070470162704770B502460B4665
:104CC00000240021002500201E04350ED9B2012643
:104CD0008E403146012D02D11668314006E0022D8A
:104CE00002D15668314001E0966831401C0C012623
:104CF000A6403446D6693440002903D0002C01D0A8
:104D0000012000E0002070BD10B5002300220B0C34
:104D100001249C402246026210BD000000218278DE
:104D2000002A27D0274A03231B02D21803789B109E
:104D30009B00D15802789207D30EFF229A400B466F
:104D40009343194642789207120E03789B07DB0EB5
:104D50009A4011431B4A03231B02D21803789B106D
:104D60009B00D1500278D306DB0E01229A40154BEE
:104D70001A6007E00278D306DB0E01229A40114B3D
:104D800080331A607047002905D00F4A1269024328
:104D90000D4B1A6104E00C4A126982430A4B1A61F6
:104DA0007047042806D10949096904221143074ABA
:104DB000116105E00549096904229143034A116123
:104DC0007047000000E100E000ED00E000E000E0DE
:104DD00038B50346A3A4246800940822002109E002
:104DE0006C46645C551E6D1AED00AC402418E0B2B0
:104DF0004C1CE1B29142F3DB38BD10B59A48FDF787
:104E0000F7FB0320FDF7F7FB7D200001FDF7F6FB24
:104E1000FDF7F7FBFDF7FCFB10BD10B5FDF7F1FB4F
:104E200010BD7FB591490020FEF7E5F98F48007865
:104E30008F4908718D48407848718C488078887116
:104E40008C490020FEF77BFA8A48C07888490870B0
:104E5000884840784870874880788870854800780E
:104E6000C870084680794979814A1279804BDB788D
:104E700000930192029103907D48837842780178F3
:104E80007DA000F017FE8A480278417889A000F0E2
:104E900011FE0520FBF77DFA8E48006800F04BFB01
:104EA00005460E468C48006800F045FB02460B465E
:104EB000019600950391029088A000F0FBFD00246C
:104EC0000CE06000944A115A94A000F0F3FD092C04
:104ED00002D176A000F0EEFD601CC4B20A2CF0DB1B
:104EE0009048018890A000F0E5FD00240CE06000EF
:104EF000934A115A89A000F0DDFD092C02D16BA064
:104F000000F0D8FD601CC4B20A2CF0DB8D4801888B
:104F10008DA000F0CFFD00240CE06000904A115AF3
:104F200090A000F0C7FD1F2C02D160A000F0C2FDD0
:104F3000601CC4B2202CF0DB8C480278008801127F
:104F40008BA000F0B7FD8F4803888F4802888F48F8
:104F500001888FA000F0AEFD7FBDFBF74EF9FFF793
:104F60004CFFFBF77FFCFCF741FCFBF7DBF9FBF7A1
:104F7000A7FAFBF7AAFBFBF7D7FCFBF755FA2F21A3
:104F80008C48FBF7C4FFFCF763F9FCF725F9FBF746
:104F90007EFF66E0FFF741FF87480078022808DBC4
:104FA00010218648FDF7EBFA002083490870FCF7D2
:104FB00001FC8348006883490968884251D08048D1
:104FC0000068804908607E480068FF21F53188420A
:104FD0001ED37B480068401A794908600821774849
:104FE000FDF7BEFA0121081AC4B22246082173480F
:104FF000FDF7C7FA70480078401C6F4908705848A0
:10500000FCF78CFDFCF76EF810216C48FDF7B5FA43
:1050100064216B48006800F0D9F8002907D1FBF73C
:10502000E9FF0121C9030920C006FDF7A6FA962170
:105030006348006800F0CAF8002912D1624800787D
:1050400001280ED10A213448FCF74BF93549088074
:105050000A213B48FCF745F93A49088000205A49A3
:10506000087097E74865780055550000BF0000209C
:1050700018000020C30000200D0A0D0A5F5F5F5F6B
:105080005F5F5F5F5F5F5F5F5F5F5F5F5F5F5F5F30
:105090005F2532642F2532642F2532642825642948
:1050A000202532643A2532643A2532640D0A000024
:1050B0002A0100205F5F5F5F5F5F5F5F5F5F5F5F31
:1050C0005F5F5F5F5F5F5F5F5F2532642D2D25321D
:1050D000640D0A00E0000020DC0000205F5F5F5FDD
:1050E0005F5F5F5F5F5F5F5F5F5F5F5F5F5F5F5FD0
:1050F0005F54656D70657261747572653A25322E04
:10510000316643202048756D69646974793A2532A7
:105110002E316625250D0A0056010020202025305D
:1051200033640000D0000020417665726167655FDE
:105130004761736573313D253033640D0A0000000B
:105140006A010020D2000020417665726167655FC8
:105150004761736573323D253033640D0A000000EA
:105160007A0000202025327800000000080100208D
:1051700064617461637263A3BA2532782025327842
:105180000D0A0000FA000020F8000020F6000020C0
:10519000504D315F30A3BA2533642020504D325F2B
:1051A00035A3BA2533642020504D3130A3BA2533BE
:1051B000640D0A00E70300002801002000040048F5
:1051C0001C01002020010020D400002030B50B4637
:1051D000014600202022012409E00D46D5409D42D1
:1051E00005D31D469540491B254695404019154657
:1051F000521E002DF1DC30BD70B50024254600287C
:1052000001DA01244042002901DA01254942FFF771
:10521000DDFFAC4200D04042002C00D0494270BDBE
:10522000F8B502464A40D40F42004B0052085B08D2
:105230009A4202D20246084611464A0023D0C30DC4
:105240004A00DDB2120EAD1A202D35DA49020126D0
:10525000490AF6058A19002C00D0524220214F1B22
:105260001146B9402A411018C20D9A4221D0002C93
:1052700017D0012D08DCDA05801AD20F8019D20769
:10528000DBB200F0CDF9F8BDDA05801A0123400049
:105290001B06C01880185A428018CA0F10434900D4
:1052A00007E04908C2071143DA05801A801940084F
:1052B000801800F0ADF9F8BD61000122511A001B01
:1052C000F7E70122D2075140AAE70122D207504056
:1052D000A6E7024670B54A40D30FDB0740002DD049
:1052E0004A002AD0010E140E000212020919400AC7
:1052F000520A8418E50104465443000A120A2E0497
:105300005043A4194219200CC543AA18120C0125B8
:10531000AD03521C521912047F39240400D0521CD0
:10532000104301D44000491EC2B20C06C009201827
:10533000401C4008802A02D003E0002070BD4008D5
:105340004000002900DA0020184370BD70B5024605
:105350004A40D50F40004A00ED0740085208002897
:1053600014D0002A12D0C40DD30D41020120C00573
:105370005202490A520AE41A091812187D3491425D
:1053800001D3641C00E04900002C01DA002070BD4C
:105390000023914201D3891A0343400849000028A1
:1053A000F7D100290AD0914202D10121C90705E0B5
:1053B000914201D2012101E00121C943E005C01859
:1053C000401900F025F970BDF0B50C465C4085B081
:1053D000E40FE40703944C00002664085900944647
:1053E000490802460296224321D062460A431ED053
:1053F0006200570D4A000E032303550D0124024697
:105400002C492405781B1B0B360B401823432643DD
:10541000614600901C46501AB44103D30098401CCA
:10542000009002E0921800985B41002803DA002007
:10543000014605B0F0BD002001210905074686465A
:1054400011E064461D46141BB54106D36546521B48
:10545000B341744607430C43A646CD0740084908AC
:10546000284392185B4105460D43EAD11046184384
:1054700013D06046194650407140084306D060463C
:10548000101AB34106D20122002306E000220123B4
:10549000DB0702E00122D243531000987446010555
:1054A000381C6141029C039D0019694100F0F1F82C
:1054B000BFE70000FD030000C217C10F504010B548
:1054C0004018CA079623002100F0AAF810BD10B5B5
:1054D00000229623114600F0A3F810BDC20F410030
:1054E00040020123400ADB05D207090EC0187F29BC
:1054F00001DA00207047962903DC9623591AC84028
:1055000001E096398840002AF4D0404270474100BB
:1055100040020122400AD205090E80187F2901DAD3
:1055200000207047962903DC9622511AC840704724
:10553000963988407047C20FD207400040080BD010
:10554000C10D0723DB01C91840020905400A1143B8
:10555000C208400711437047002001467047000011
:1055600010B5002904DB0124E40740428C412146A8
:10557000002B04DB1C460123DB075242A3418B4274
:1055800000D1824210BD00000122D207002800DBBA
:10559000101A002900DB511A814270470122D207FC
:1055A000002800DB101A002900DB511A88427047DE
:1055B000F0B51FB40646002082B005464024019194
:1055C00000901BE0019922460F46304600F030FA69
:1055D000049A059B801A994110D310461946224619
:1055E00000F016FA361A8F41019722460120002159
:1055F000009F00F00DFA38184D4100902046641EBF
:105600000028DFDC019B00982946324607B0F0BD38
:10561000002904DA401C490001D1400840007047CD
:1056200070B40024050C05D11024000402D1002917
:1056300021D01124050E01D100020834050F01D13B
:105640000001241D850F01D18000A41C002801DB6E
:105650004000641C002908D020252E1B0D46F54073
:10566000A14000D001212943084301061B1B000A69
:10567000DB1D02D5002070BC7047DB0518188018B0
:105680000029F8DA401C4900F5D170BC4008400000
:10569000704710B5002B08DA0024401C61419218B5
:1056A0005B411A4301D14008400010BDF0B51FB462
:1056B00082B005460C0003D0084600F01FFA02E055
:1056C00000F01CFA2030024600902146284600F0E7
:1056D0009FF9049B059A04460F461843114308435B
:1056E00014D0184610431BD0009840210A1A1846BF
:1056F000059900F09DF905460E46009A0599049813
:1057000000F086F9084305D0012004E02046394620
:1057100007B0F0BD0020C11705430E432C433743AB
:1057200000990E986305401A7905E40A00220C439B
:10573000FD0A0A3002D500200146E9E701051019EB
:1057400069410C9C0D9D00196941FFF7A2FFDFE73D
:10575000F0B507460846584087B0C00F049048008F
:105760000E46590040084908BC1A884105D23846FF
:1057700031461E4617460B46024658004008104365
:105780004CD0300D039040055900400D490D059057
:10579000401A0290402872DA18030121000B090513
:1057A0000843019004980092002805D001995242C4
:1057B0000020884100920190029840210A1A019924
:1057C000009800F025F905460C466B4607CB00F023
:1057D00040F9C0197141039A0E0D0023D7175640A6
:1057E0001A467A40164344D0049A002A2DD0029AD1
:1057F000012A039A15DC1205C01A914101263605CB
:10580000001C7141D20F059ED207009301920296AF
:105810002A462346FFF74AFF07B0F0BD3846314617
:10582000FAE71605224A0F46B218C01AB7410121FD
:105830000905001C4F4100187F4111461818794195
:10584000E20F10436D19644113E0E2076D08154340
:105850006408C2071443039A01261205C01A914135
:105860003605001C7141CE07400830434908C01876
:1058700051412A462346FFF70CFFCDE7FFE7049886
:1058800001224000C117121A00238B4104983146AF
:10589000C417381AA141EEE730B40124E40763408D
:1058A00030BC55E730B40124E407614030BC4FE719
:1058B0000000E0FFF0B51FB488B00B9909980024F0
:1058C00048400999C00F490049080991C0070B9940
:1058D0000090490049080B9109990898A646084389
:1058E0001CD00B990A98084318D00998012440004D
:1058F000420D4800410D099824050003000B204388
:1059000009900B980003000B20430B9050181C4982
:105910004018002201901446104605E00020014680
:105920000DB0F0BD032801DA034600E003239C46D6
:10593000C11A0AAE0AE05F0008ADED5B4F00F75BED
:105940007D430027AA187C41491C5B1E6145F2DD9E
:10595000410004AB5A522104120C0A43240C401C8F
:105960000828DFDB019802900099704601910090B1
:10597000059B049A07990698FFF798FED0E7000068
:105980000DFCFFFF4A0009030123090B1B05194306
:105990000A4B10B5520D9A4202DA0020014610BDA2
:1059A000064B34339A4203DC9A1A00F041F810BDDA
:1059B000034BD21800F02CF810BD0000FF030000CC
:1059C000CDFBFFFF10B5002904DB0124E4074042B2
:1059D0008C412146002B04DB1C460123DB0752428D
:1059E000A341994200D1904210BD0000064C012510
:1059F000064E05E0E36807CC2B430C3C9847103477
:105A0000B442F7D3FAF760FB4C6600086C660008F6
:105A100010B5202A04DB0146203A9140002010BD39
:105A2000914020239C1A0346E3401943904010BD47
:105A300010B5202A04DB0846203AD040002110BDD2
:105A40000B46D340D0402024A21A91400843194667
:105A500010BD10B5202A06DBCB170846203A1041AE
:105A6000C1170B4306E00B461341D0402024A21A75
:105A700091400843194610BD30B58C180278401C7F
:105A800013071B0F01D10378401C120906D10278BD
:105A9000401C03E005780D70401C491C5B1EF9D1C9
:105AA00001E00B70491C521EFBD1A142E6D300203D
:105AB00030BD00000FB410B503A9044B044A02988E
:105AC00000F00AF910BC08BC04B01847250800080B
:105AD000340100200FB410B504A9074B02AA0398A3
